{
  "transactions": [
    {
      "hash": "0x2dabcecd898437cd58daa1700d826bb9620d95df8bdddd8b8d097a649433c9a5",
      "transactionType": "CREATE",
      "contractName": "TestToken",
      "contractAddress": "0x03d516cc372f7fa6c51ab54304ff2e361fbd4ef5",
      "function": null,
      "arguments": [
        "Test USDC",
        "TUSDC",
        "18"
      ],
      "transaction": {
        "from": "0x1942913ce83a919200c518c7cd08f990c686b966",
        "gas": "0x136379",
        "value": "0x0",
        "input": "0x608060405234801561000f575f80fd5b5060405161147b38038061147b833981810160405281019061003191906101f5565b825f908161003f919061048a565b50816001908161004f919061048a565b508060025f6101000a81548160ff021916908360ff160217905550505050610559565b5f604051905090565b5f80fd5b5f80fd5b5f80fd5b5f80fd5b5f601f19601f8301169050919050565b7f4e487b71000000000000000000000000000000000000000000000000000000005f52604160045260245ffd5b6100d18261008b565b810181811067ffffffffffffffff821117156100f0576100ef61009b565b5b80604052505050565b5f610102610072565b905061010e82826100c8565b919050565b5f67ffffffffffffffff82111561012d5761012c61009b565b5b6101368261008b565b9050602081019050919050565b8281835e5f83830152505050565b5f61016361015e84610113565b6100f9565b90508281526020810184848401111561017f5761017e610087565b5b61018a848285610143565b509392505050565b5f82601f8301126101a6576101a5610083565b5b81516101b6848260208601610151565b91505092915050565b5f60ff82169050919050565b6101d4816101bf565b81146101de575f80fd5b50565b5f815190506101ef816101cb565b92915050565b5f805f6060848603121561020c5761020b61007b565b5b5f84015167ffffffffffffffff8111156102295761022861007f565b5b61023586828701610192565b935050602084015167ffffffffffffffff8111156102565761025561007f565b5b61026286828701610192565b9250506040610273868287016101e1565b9150509250925092565b5f81519050919050565b7f4e487b71000000000000000000000000000000000000000000000000000000005f52602260045260245ffd5b5f60028204905060018216806102cb57607f821691505b6020821081036102de576102dd610287565b5b50919050565b5f819050815f5260205f209050919050565b5f6020601f8301049050919050565b5f82821b905092915050565b5f600883026103407fffffffffffffffffffffffffffffffffffffffffffffffffffffffffffffffff82610305565b61034a8683610305565b95508019841693508086168417925050509392505050565b5f819050919050565b5f819050919050565b5f61038e61038961038484610362565b61036b565b610362565b9050919050565b5f819050919050565b6103a783610374565b6103bb6103b382610395565b848454610311565b825550505050565b5f90565b6103cf6103c3565b6103da81848461039e565b505050565b5b818110156103fd576103f25f826103c7565b6001810190506103e0565b5050565b601f82111561044257610413816102e4565b61041c846102f6565b8101602085101561042b578190505b61043f610437856102f6565b8301826103df565b50505b505050565b5f82821c905092915050565b5f6104625f1984600802610447565b1980831691505092915050565b5f61047a8383610453565b9150826002028217905092915050565b6104938261027d565b67ffffffffffffffff8111156104ac576104ab61009b565b5b6104b682546102b4565b6104c1828285610401565b5f60209050601f8311600181146104f2575f84156104e0578287015190505b6104ea858261046f565b865550610551565b601f198416610500866102e4565b5f5b8281101561052757848901518255600182019150602085019450602081019050610502565b868310156105445784890151610540601f891682610453565b8355505b6001600288020188555050505b505050505050565b610f15806105665f395ff3fe608060405234801561000f575f80fd5b506004361061009c575f3560e01c806340c10f191161006457806340c10f191461015a57806370a082311461017657806395d89b41146101a6578063a9059cbb146101c4578063dd62ed3e146101f45761009c565b806306fdde03146100a0578063095ea7b3146100be57806318160ddd146100ee57806323b872dd1461010c578063313ce5671461013c575b5f80fd5b6100a8610224565b6040516100b59190610ac2565b60405180910390f35b6100d860048036038101906100d39190610b73565b6102af565b6040516100e59190610bcb565b60405180910390f35b6100f661039c565b6040516101039190610bf3565b60405180910390f35b61012660048036038101906101219190610c0c565b6103a2565b6040516101339190610bcb565b60405180910390f35b610144610682565b6040516101519190610c77565b60405180910390f35b610174600480360381019061016f9190610b73565b610694565b005b610190600480360381019061018b9190610c90565b610768565b60405161019d9190610bf3565b60405180910390f35b6101ae6107ae565b6040516101bb9190610ac2565b60405180910390f35b6101de60048036038101906101d99190610b73565b61083a565b6040516101eb9190610bcb565b60405180910390f35b61020e60048036038101906102099190610cbb565b6109d0565b60405161021b9190610bf3565b60405180910390f35b5f805461023090610d26565b80601f016020809104026020016040519081016040528092919081815260200182805461025c90610d26565b80156102a75780601f1061027e576101008083540402835291602001916102a7565b820191905f5260205f20905b81548152906001019060200180831161028a57829003601f168201915b505050505081565b5f8160055f3373ffffffffffffffffffffffffffffffffffffffff1673ffffffffffffffffffffffffffffffffffffffff1681526020019081526020015f205f8573ffffffffffffffffffffffffffffffffffffffff1673ffffffffffffffffffffffffffffffffffffffff1681526020019081526020015f20819055508273ffffffffffffffffffffffffffffffffffffffff163373ffffffffffffffffffffffffffffffffffffffff167f8c5be1e5ebec7d5bd14f71427d1e84f3dd0314c0f7b2291e5b200ac8c7c3b9258460405161038a9190610bf3565b60405180910390a36001905092915050565b60035481565b5f8160045f8673ffffffffffffffffffffffffffffffffffffffff1673ffffffffffffffffffffffffffffffffffffffff1681526020019081526020015f20541015610423576040517f08c379a000000000000000000000000000000000000000000000000000000000815260040161041a90610da0565b60405180910390fd5b8160055f8673ffffffffffffffffffffffffffffffffffffffff1673ffffffffffffffffffffffffffffffffffffffff1681526020019081526020015f205f3373ffffffffffffffffffffffffffffffffffffffff1673ffffffffffffffffffffffffffffffffffffffff1681526020019081526020015f205410156104de576040517f08c379a00000000000000000000000000000000000000000000000000000000081526004016104d590610e2e565b60405180910390fd5b8160045f8673ffffffffffffffffffffffffffffffffffffffff1673ffffffffffffffffffffffffffffffffffffffff1681526020019081526020015f205f82825461052a9190610e79565b925050819055508160045f8573ffffffffffffffffffffffffffffffffffffffff1673ffffffffffffffffffffffffffffffffffffffff1681526020019081526020015f205f82825461057d9190610eac565b925050819055508160055f8673ffffffffffffffffffffffffffffffffffffffff1673ffffffffffffffffffffffffffffffffffffffff1681526020019081526020015f205f3373ffffffffffffffffffffffffffffffffffffffff1673ffffffffffffffffffffffffffffffffffffffff1681526020019081526020015f205f82825461060b9190610e79565b925050819055508273ffffffffffffffffffffffffffffffffffffffff168473ffffffffffffffffffffffffffffffffffffffff167fddf252ad1be2c89b69c2b068fc378daa952ba7f163c4a11628f55a4df523b3ef8460405161066f9190610bf3565b60405180910390a3600190509392505050565b60025f9054906101000a900460ff1681565b8060045f8473ffffffffffffffffffffffffffffffffffffffff1673ffffffffffffffffffffffffffffffffffffffff1681526020019081526020015f205f8282546106e09190610eac565b925050819055508060035f8282546106f89190610eac565b925050819055508173ffffffffffffffffffffffffffffffffffffffff165f73ffffffffffffffffffffffffffffffffffffffff167fddf252ad1be2c89b69c2b068fc378daa952ba7f163c4a11628f55a4df523b3ef8360405161075c9190610bf3565b60405180910390a35050565b5f60045f8373ffffffffffffffffffffffffffffffffffffffff1673ffffffffffffffffffffffffffffffffffffffff1681526020019081526020015f20549050919050565b600180546107bb90610d26565b80601f01602080910402602001604051908101604052809291908181526020018280546107e790610d26565b80156108325780601f1061080957610100808354040283529160200191610832565b820191905f5260205f20905b81548152906001019060200180831161081557829003601f168201915b505050505081565b5f8160045f3373ffffffffffffffffffffffffffffffffffffffff1673ffffffffffffffffffffffffffffffffffffffff1681526020019081526020015f205410156108bb576040517f08c379a00000000000000000000000000000000000000000000000000000000081526004016108b290610da0565b60405180910390fd5b8160045f3373ffffffffffffffffffffffffffffffffffffffff1673ffffffffffffffffffffffffffffffffffffffff1681526020019081526020015f205f8282546109079190610e79565b925050819055508160045f8573ffffffffffffffffffffffffffffffffffffffff1673ffffffffffffffffffffffffffffffffffffffff1681526020019081526020015f205f82825461095a9190610eac565b925050819055508273ffffffffffffffffffffffffffffffffffffffff163373ffffffffffffffffffffffffffffffffffffffff167fddf252ad1be2c89b69c2b068fc378daa952ba7f163c4a11628f55a4df523b3ef846040516109be9190610bf3565b60405180910390a36001905092915050565b5f60055f8473ffffffffffffffffffffffffffffffffffffffff1673ffffffffffffffffffffffffffffffffffffffff1681526020019081526020015f205f8373ffffffffffffffffffffffffffffffffffffffff1673ffffffffffffffffffffffffffffffffffffffff1681526020019081526020015f2054905092915050565b5f81519050919050565b5f82825260208201905092915050565b8281835e5f83830152505050565b5f601f19601f8301169050919050565b5f610a9482610a52565b610a9e8185610a5c565b9350610aae818560208601610a6c565b610ab781610a7a565b840191505092915050565b5f6020820190508181035f830152610ada8184610a8a565b905092915050565b5f80fd5b5f73ffffffffffffffffffffffffffffffffffffffff82169050919050565b5f610b0f82610ae6565b9050919050565b610b1f81610b05565b8114610b29575f80fd5b50565b5f81359050610b3a81610b16565b92915050565b5f819050919050565b610b5281610b40565b8114610b5c575f80fd5b50565b5f81359050610b6d81610b49565b92915050565b5f8060408385031215610b8957610b88610ae2565b5b5f610b9685828601610b2c565b9250506020610ba785828601610b5f565b9150509250929050565b5f8115159050919050565b610bc581610bb1565b82525050565b5f602082019050610bde5f830184610bbc565b92915050565b610bed81610b40565b82525050565b5f602082019050610c065f830184610be4565b92915050565b5f805f60608486031215610c2357610c22610ae2565b5b5f610c3086828701610b2c565b9350506020610c4186828701610b2c565b9250506040610c5286828701610b5f565b9150509250925092565b5f60ff82169050919050565b610c7181610c5c565b82525050565b5f602082019050610c8a5f830184610c68565b92915050565b5f60208284031215610ca557610ca4610ae2565b5b5f610cb284828501610b2c565b91505092915050565b5f8060408385031215610cd157610cd0610ae2565b5b5f610cde85828601610b2c565b9250506020610cef85828601610b2c565b9150509250929050565b7f4e487b71000000000000000000000000000000000000000000000000000000005f52602260045260245ffd5b5f6002820490506001821680610d3d57607f821691505b602082108103610d5057610d4f610cf9565b5b50919050565b7f5472616e7366657220616d6f756e7420657863656564732062616c616e6365005f82015250565b5f610d8a601f83610a5c565b9150610d9582610d56565b602082019050919050565b5f6020820190508181035f830152610db781610d7e565b9050919050565b7f5472616e7366657220616d6f756e74206578636565647320616c6c6f77616e635f8201527f6500000000000000000000000000000000000000000000000000000000000000602082015250565b5f610e18602183610a5c565b9150610e2382610dbe565b604082019050919050565b5f6020820190508181035f830152610e4581610e0c565b9050919050565b7f4e487b71000000000000000000000000000000000000000000000000000000005f52601160045260245ffd5b5f610e8382610b40565b9150610e8e83610b40565b9250828203905081811115610ea657610ea5610e4c565b5b92915050565b5f610eb682610b40565b9150610ec183610b40565b9250828201905080821115610ed957610ed8610e4c565b5b9291505056fea2646970667358221220c4f8142d3c5e019285d6a2f27e6ee4d7c89e4ab61dcb1a4218ce537b316a110864736f6c634300081a0033000000000000000000000000000000000000000000000000000000000000006000000000000000000000000000000000000000000000000000000000000000a000000000000000000000000000000000000000000000000000000000000000120000000000000000000000000000000000000000000000000000000000000009546573742055534443000000000000000000000000000000000000000000000000000000000000000000000000000000000000000000000000000000000000055455534443000000000000000000000000000000000000000000000000000000",
        "nonce": "0x5",
        "chainId": "0xaa36a7"
      },
      "additionalContracts": [],
      "isFixedGasLimit": false
    },
    {
      "hash": "0xe938f3e0de9d370c7450aab864e5f3d0fbb3f050a5ec7b2e310a69d3ae2c7b67",
      "transactionType": "CREATE",
      "contractName": "TestToken",
      "contractAddress": "0x5c151010b941cb8f103b5708725a20118dcba509",
      "function": null,
      "arguments": [
        "Test WETH",
        "TWETH",
        "18"
      ],
      "transaction": {
        "from": "0x1942913ce83a919200c518c7cd08f990c686b966",
        "gas": "0x136379",
        "value": "0x0",
        "input": "0x608060405234801561000f575f80fd5b5060405161147b38038061147b833981810160405281019061003191906101f5565b825f908161003f919061048a565b50816001908161004f919061048a565b508060025f6101000a81548160ff021916908360ff160217905550505050610559565b5f604051905090565b5f80fd5b5f80fd5b5f80fd5b5f80fd5b5f601f19601f8301169050919050565b7f4e487b71000000000000000000000000000000000000000000000000000000005f52604160045260245ffd5b6100d18261008b565b810181811067ffffffffffffffff821117156100f0576100ef61009b565b5b80604052505050565b5f610102610072565b905061010e82826100c8565b919050565b5f67ffffffffffffffff82111561012d5761012c61009b565b5b6101368261008b565b9050602081019050919050565b8281835e5f83830152505050565b5f61016361015e84610113565b6100f9565b90508281526020810184848401111561017f5761017e610087565b5b61018a848285610143565b509392505050565b5f82601f8301126101a6576101a5610083565b5b81516101b6848260208601610151565b91505092915050565b5f60ff82169050919050565b6101d4816101bf565b81146101de575f80fd5b50565b5f815190506101ef816101cb565b92915050565b5f805f6060848603121561020c5761020b61007b565b5b5f84015167ffffffffffffffff8111156102295761022861007f565b5b61023586828701610192565b935050602084015167ffffffffffffffff8111156102565761025561007f565b5b61026286828701610192565b9250506040610273868287016101e1565b9150509250925092565b5f81519050919050565b7f4e487b71000000000000000000000000000000000000000000000000000000005f52602260045260245ffd5b5f60028204905060018216806102cb57607f821691505b6020821081036102de576102dd610287565b5b50919050565b5f819050815f5260205f209050919050565b5f6020601f8301049050919050565b5f82821b905092915050565b5f600883026103407fffffffffffffffffffffffffffffffffffffffffffffffffffffffffffffffff82610305565b61034a8683610305565b95508019841693508086168417925050509392505050565b5f819050919050565b5f819050919050565b5f61038e61038961038484610362565b61036b565b610362565b9050919050565b5f819050919050565b6103a783610374565b6103bb6103b382610395565b848454610311565b825550505050565b5f90565b6103cf6103c3565b6103da81848461039e565b505050565b5b818110156103fd576103f25f826103c7565b6001810190506103e0565b5050565b601f82111561044257610413816102e4565b61041c846102f6565b8101602085101561042b578190505b61043f610437856102f6565b8301826103df565b50505b505050565b5f82821c905092915050565b5f6104625f1984600802610447565b1980831691505092915050565b5f61047a8383610453565b9150826002028217905092915050565b6104938261027d565b67ffffffffffffffff8111156104ac576104ab61009b565b5b6104b682546102b4565b6104c1828285610401565b5f60209050601f8311600181146104f2575f84156104e0578287015190505b6104ea858261046f565b865550610551565b601f198416610500866102e4565b5f5b8281101561052757848901518255600182019150602085019450602081019050610502565b868310156105445784890151610540601f891682610453565b8355505b6001600288020188555050505b505050505050565b610f15806105665f395ff3fe608060405234801561000f575f80fd5b506004361061009c575f3560e01c806340c10f191161006457806340c10f191461015a57806370a082311461017657806395d89b41146101a6578063a9059cbb146101c4578063dd62ed3e146101f45761009c565b806306fdde03146100a0578063095ea7b3146100be57806318160ddd146100ee57806323b872dd1461010c578063313ce5671461013c575b5f80fd5b6100a8610224565b6040516100b59190610ac2565b60405180910390f35b6100d860048036038101906100d39190610b73565b6102af565b6040516100e59190610bcb565b60405180910390f35b6100f661039c565b6040516101039190610bf3565b60405180910390f35b61012660048036038101906101219190610c0c565b6103a2565b6040516101339190610bcb565b60405180910390f35b610144610682565b6040516101519190610c77565b60405180910390f35b610174600480360381019061016f9190610b73565b610694565b005b610190600480360381019061018b9190610c90565b610768565b60405161019d9190610bf3565b60405180910390f35b6101ae6107ae565b6040516101bb9190610ac2565b60405180910390f35b6101de60048036038101906101d99190610b73565b61083a565b6040516101eb9190610bcb565b60405180910390f35b61020e60048036038101906102099190610cbb565b6109d0565b60405161021b9190610bf3565b60405180910390f35b5f805461023090610d26565b80601f016020809104026020016040519081016040528092919081815260200182805461025c90610d26565b80156102a75780601f1061027e576101008083540402835291602001916102a7565b820191905f5260205f20905b81548152906001019060200180831161028a57829003601f168201915b505050505081565b5f8160055f3373ffffffffffffffffffffffffffffffffffffffff1673ffffffffffffffffffffffffffffffffffffffff1681526020019081526020015f205f8573ffffffffffffffffffffffffffffffffffffffff1673ffffffffffffffffffffffffffffffffffffffff1681526020019081526020015f20819055508273ffffffffffffffffffffffffffffffffffffffff163373ffffffffffffffffffffffffffffffffffffffff167f8c5be1e5ebec7d5bd14f71427d1e84f3dd0314c0f7b2291e5b200ac8c7c3b9258460405161038a9190610bf3565b60405180910390a36001905092915050565b60035481565b5f8160045f8673ffffffffffffffffffffffffffffffffffffffff1673ffffffffffffffffffffffffffffffffffffffff1681526020019081526020015f20541015610423576040517f08c379a000000000000000000000000000000000000000000000000000000000815260040161041a90610da0565b60405180910390fd5b8160055f8673ffffffffffffffffffffffffffffffffffffffff1673ffffffffffffffffffffffffffffffffffffffff1681526020019081526020015f205f3373ffffffffffffffffffffffffffffffffffffffff1673ffffffffffffffffffffffffffffffffffffffff1681526020019081526020015f205410156104de576040517f08c379a00000000000000000000000000000000000000000000000000000000081526004016104d590610e2e565b60405180910390fd5b8160045f8673ffffffffffffffffffffffffffffffffffffffff1673ffffffffffffffffffffffffffffffffffffffff1681526020019081526020015f205f82825461052a9190610e79565b925050819055508160045f8573ffffffffffffffffffffffffffffffffffffffff1673ffffffffffffffffffffffffffffffffffffffff1681526020019081526020015f205f82825461057d9190610eac565b925050819055508160055f8673ffffffffffffffffffffffffffffffffffffffff1673ffffffffffffffffffffffffffffffffffffffff1681526020019081526020015f205f3373ffffffffffffffffffffffffffffffffffffffff1673ffffffffffffffffffffffffffffffffffffffff1681526020019081526020015f205f82825461060b9190610e79565b925050819055508273ffffffffffffffffffffffffffffffffffffffff168473ffffffffffffffffffffffffffffffffffffffff167fddf252ad1be2c89b69c2b068fc378daa952ba7f163c4a11628f55a4df523b3ef8460405161066f9190610bf3565b60405180910390a3600190509392505050565b60025f9054906101000a900460ff1681565b8060045f8473ffffffffffffffffffffffffffffffffffffffff1673ffffffffffffffffffffffffffffffffffffffff1681526020019081526020015f205f8282546106e09190610eac565b925050819055508060035f8282546106f89190610eac565b925050819055508173ffffffffffffffffffffffffffffffffffffffff165f73ffffffffffffffffffffffffffffffffffffffff167fddf252ad1be2c89b69c2b068fc378daa952ba7f163c4a11628f55a4df523b3ef8360405161075c9190610bf3565b60405180910390a35050565b5f60045f8373ffffffffffffffffffffffffffffffffffffffff1673ffffffffffffffffffffffffffffffffffffffff1681526020019081526020015f20549050919050565b600180546107bb90610d26565b80601f01602080910402602001604051908101604052809291908181526020018280546107e790610d26565b80156108325780601f1061080957610100808354040283529160200191610832565b820191905f5260205f20905b81548152906001019060200180831161081557829003601f168201915b505050505081565b5f8160045f3373ffffffffffffffffffffffffffffffffffffffff1673ffffffffffffffffffffffffffffffffffffffff1681526020019081526020015f205410156108bb576040517f08c379a00000000000000000000000000000000000000000000000000000000081526004016108b290610da0565b60405180910390fd5b8160045f3373ffffffffffffffffffffffffffffffffffffffff1673ffffffffffffffffffffffffffffffffffffffff1681526020019081526020015f205f8282546109079190610e79565b925050819055508160045f8573ffffffffffffffffffffffffffffffffffffffff1673ffffffffffffffffffffffffffffffffffffffff1681526020019081526020015f205f82825461095a9190610eac565b925050819055508273ffffffffffffffffffffffffffffffffffffffff163373ffffffffffffffffffffffffffffffffffffffff167fddf252ad1be2c89b69c2b068fc378daa952ba7f163c4a11628f55a4df523b3ef846040516109be9190610bf3565b60405180910390a36001905092915050565b5f60055f8473ffffffffffffffffffffffffffffffffffffffff1673ffffffffffffffffffffffffffffffffffffffff1681526020019081526020015f205f8373ffffffffffffffffffffffffffffffffffffffff1673ffffffffffffffffffffffffffffffffffffffff1681526020019081526020015f2054905092915050565b5f81519050919050565b5f82825260208201905092915050565b8281835e5f83830152505050565b5f601f19601f8301169050919050565b5f610a9482610a52565b610a9e8185610a5c565b9350610aae818560208601610a6c565b610ab781610a7a565b840191505092915050565b5f6020820190508181035f830152610ada8184610a8a565b905092915050565b5f80fd5b5f73ffffffffffffffffffffffffffffffffffffffff82169050919050565b5f610b0f82610ae6565b9050919050565b610b1f81610b05565b8114610b29575f80fd5b50565b5f81359050610b3a81610b16565b92915050565b5f819050919050565b610b5281610b40565b8114610b5c575f80fd5b50565b5f81359050610b6d81610b49565b92915050565b5f8060408385031215610b8957610b88610ae2565b5b5f610b9685828601610b2c565b9250506020610ba785828601610b5f565b9150509250929050565b5f8115159050919050565b610bc581610bb1565b82525050565b5f602082019050610bde5f830184610bbc565b92915050565b610bed81610b40565b82525050565b5f602082019050610c065f830184610be4565b92915050565b5f805f60608486031215610c2357610c22610ae2565b5b5f610c3086828701610b2c565b9350506020610c4186828701610b2c565b9250506040610c5286828701610b5f565b9150509250925092565b5f60ff82169050919050565b610c7181610c5c565b82525050565b5f602082019050610c8a5f830184610c68565b92915050565b5f60208284031215610ca557610ca4610ae2565b5b5f610cb284828501610b2c565b91505092915050565b5f8060408385031215610cd157610cd0610ae2565b5b5f610cde85828601610b2c565b9250506020610cef85828601610b2c565b9150509250929050565b7f4e487b71000000000000000000000000000000000000000000000000000000005f52602260045260245ffd5b5f6002820490506001821680610d3d57607f821691505b602082108103610d5057610d4f610cf9565b5b50919050565b7f5472616e7366657220616d6f756e7420657863656564732062616c616e6365005f82015250565b5f610d8a601f83610a5c565b9150610d9582610d56565b602082019050919050565b5f6020820190508181035f830152610db781610d7e565b9050919050565b7f5472616e7366657220616d6f756e74206578636565647320616c6c6f77616e635f8201527f6500000000000000000000000000000000000000000000000000000000000000602082015250565b5f610e18602183610a5c565b9150610e2382610dbe565b604082019050919050565b5f6020820190508181035f830152610e4581610e0c565b9050919050565b7f4e487b71000000000000000000000000000000000000000000000000000000005f52601160045260245ffd5b5f610e8382610b40565b9150610e8e83610b40565b9250828203905081811115610ea657610ea5610e4c565b5b92915050565b5f610eb682610b40565b9150610ec183610b40565b9250828201905080821115610ed957610ed8610e4c565b5b9291505056fea2646970667358221220c4f8142d3c5e019285d6a2f27e6ee4d7c89e4ab61dcb1a4218ce537b316a110864736f6c634300081a0033000000000000000000000000000000000000000000000000000000000000006000000000000000000000000000000000000000000000000000000000000000a000000000000000000000000000000000000000000000000000000000000000120000000000000000000000000000000000000000000000000000000000000009546573742057455448000000000000000000000000000000000000000000000000000000000000000000000000000000000000000000000000000000000000055457455448000000000000000000000000000000000000000000000000000000",
        "nonce": "0x6",
        "chainId": "0xaa36a7"
      },
      "additionalContracts": [],
      "isFixedGasLimit": false
    },
    {
      "hash": "0x6651a746130af059dae6e9a74272a04994ab079b45fee978143aa182d597a8c8",
      "transactionType": "CALL",
      "contractName": "TestToken",
      "contractAddress": "0x03d516cc372f7fa6c51ab54304ff2e361fbd4ef5",
      "function": "mint(address,uint256)",
      "arguments": [
        "0x1942913cE83A919200C518c7cd08f990c686b966",
        "10000000000000000000"
      ],
      "transaction": {
        "from": "0x1942913ce83a919200c518c7cd08f990c686b966",
        "to": "0x03d516cc372f7fa6c51ab54304ff2e361fbd4ef5",
        "gas": "0x189a5",
        "value": "0x0",
        "input": "0x40c10f190000000000000000000000001942913ce83a919200c518c7cd08f990c686b9660000000000000000000000000000000000000000000000008ac7230489e80000",
        "nonce": "0x7",
        "chainId": "0xaa36a7"
      },
      "additionalContracts": [],
      "isFixedGasLimit": false
    },
    {
      "hash": "0xd0aa890a16e595bd51082f492727955ffd5bb5cf7d5e7d2a9a35d59a5637b870",
      "transactionType": "CALL",
      "contractName": "TestToken",
      "contractAddress": "0x5c151010b941cb8f103b5708725a20118dcba509",
      "function": "mint(address,uint256)",
      "arguments": [
        "0x1942913cE83A919200C518c7cd08f990c686b966",
        "10000000000000000000"
      ],
      "transaction": {
        "from": "0x1942913ce83a919200c518c7cd08f990c686b966",
        "to": "0x5c151010b941cb8f103b5708725a20118dcba509",
        "gas": "0x189a5",
        "value": "0x0",
        "input": "0x40c10f190000000000000000000000001942913ce83a919200c518c7cd08f990c686b9660000000000000000000000000000000000000000000000008ac7230489e80000",
        "nonce": "0x8",
        "chainId": "0xaa36a7"
      },
      "additionalContracts": [],
      "isFixedGasLimit": false
    },
    {
      "hash": "0xe3386f2e398e4c66add117a30252e1538b919e7502588f013d74b927ccb7882c",
      "transactionType": "CALL",
      "contractName": null,
      "contractAddress": "0x429ba70129df741b2ca2a85bc3a2a3328e5c09b4",
      "function": "multicall(bytes[])",
      "arguments": [
        "[0xf702040500000000000000000000000003d516cc372f7fa6c51ab54304ff2e361fbd4ef50000000000000000000000005c151010b941cb8f103b5708725a20118dcba5090000000000000000000000000000000000000000000000000000000000000bb8000000000000000000000000000000000000000000000000000000000000003c0000000000000000000000000000000000000000000000000000000000000000000000000000000000000000000000000000000100000000000000000000000000000000000000000000000000000000000000000000000000000000000000e00000000000000000000000000000000000000000000000000000000000000000]"
      ],
      "transaction": {
        "from": "0x1942913ce83a919200c518c7cd08f990c686b966",
        "to": "0x429ba70129df741b2ca2a85bc3a2a3328e5c09b4",
        "gas": "0x14263",
        "value": "0x0",
        "input": "0xac9650d80000000000000000000000000000000000000000000000000000000000000020000000000000000000000000000000000000000000000000000000000000000100000000000000000000000000000000000000000000000000000000000000200000000000000000000000000000000000000000000000000000000000000104f702040500000000000000000000000003d516cc372f7fa6c51ab54304ff2e361fbd4ef50000000000000000000000005c151010b941cb8f103b5708725a20118dcba5090000000000000000000000000000000000000000000000000000000000000bb8000000000000000000000000000000000000000000000000000000000000003c0000000000000000000000000000000000000000000000000000000000000000000000000000000000000000000000000000000100000000000000000000000000000000000000000000000000000000000000000000000000000000000000e0000000000000000000000000000000000000000000000000000000000000000000000000000000000000000000000000000000000000000000000000",
        "nonce": "0x9",
        "chainId": "0xaa36a7"
      },
      "additionalContracts": [],
      "isFixedGasLimit": false
    },
    {
      "hash": "0x5611d3f48d27d864ae322bdea99c94337525c5cb56caca916b3bd2d3b46994e5",
      "transactionType": "CALL",
      "contractName": "TestToken",
      "contractAddress": "0x03d516cc372f7fa6c51ab54304ff2e361fbd4ef5",
      "function": "approve(address,uint256)",
      "arguments": [
        "0x000000000022D473030F116dDEE9F6B43aC78BA3",
        "115792089237316195423570985008687907853269984665640564039457584007913129639935"
      ],
      "transaction": {
        "from": "0x1942913ce83a919200c518c7cd08f990c686b966",
        "to": "0x03d516cc372f7fa6c51ab54304ff2e361fbd4ef5",
        "gas": "0x10c4a",
        "value": "0x0",
        "input": "0x095ea7b3000000000000000000000000000000000022d473030f116ddee9f6b43ac78ba3ffffffffffffffffffffffffffffffffffffffffffffffffffffffffffffffff",
        "nonce": "0xa",
        "chainId": "0xaa36a7"
      },
      "additionalContracts": [],
      "isFixedGasLimit": false
    },
    {
      "hash": "0x382c7624fdfa0756bdf965890d07bf34e3245b1a75ae0a302257362e70046ded",
      "transactionType": "CALL",
      "contractName": null,
      "contractAddress": "0x000000000022d473030f116ddee9f6b43ac78ba3",
      "function": "approve(address,address,uint160,uint48)",
      "arguments": [
        "0x03d516Cc372f7Fa6c51aB54304fF2e361fbD4ef5",
        "0x429ba70129df741B2Ca2a85BC3A2a3328e5c09b4",
        "1461501637330902918203684832716283019655932542975",
        "281474976710655"
      ],
      "transaction": {
        "from": "0x1942913ce83a919200c518c7cd08f990c686b966",
        "to": "0x000000000022d473030f116ddee9f6b43ac78ba3",
        "gas": "0x1112d",
        "value": "0x0",
        "input": "0x87517c4500000000000000000000000003d516cc372f7fa6c51ab54304ff2e361fbd4ef5000000000000000000000000429ba70129df741b2ca2a85bc3a2a3328e5c09b4000000000000000000000000ffffffffffffffffffffffffffffffffffffffff0000000000000000000000000000000000000000000000000000ffffffffffff",
        "nonce": "0xb",
        "chainId": "0xaa36a7"
      },
      "additionalContracts": [],
      "isFixedGasLimit": false
    },
    {
      "hash": null,
      "transactionType": "CALL",
      "contractName": "TestToken",
      "contractAddress": "0x5c151010b941cb8f103b5708725a20118dcba509",
      "function": "approve(address,uint256)",
      "arguments": [
        "0x000000000022D473030F116dDEE9F6B43aC78BA3",
        "115792089237316195423570985008687907853269984665640564039457584007913129639935"
      ],
      "transaction": {
        "from": "0x1942913ce83a919200c518c7cd08f990c686b966",
        "to": "0x5c151010b941cb8f103b5708725a20118dcba509",
        "gas": "0x10c4a",
        "value": "0x0",
        "input": "0x095ea7b3000000000000000000000000000000000022d473030f116ddee9f6b43ac78ba3ffffffffffffffffffffffffffffffffffffffffffffffffffffffffffffffff",
        "nonce": "0xc",
        "chainId": "0xaa36a7"
      },
      "additionalContracts": [],
      "isFixedGasLimit": false
    },
    {
      "hash": null,
      "transactionType": "CALL",
      "contractName": null,
      "contractAddress": "0x000000000022d473030f116ddee9f6b43ac78ba3",
      "function": "approve(address,address,uint160,uint48)",
      "arguments": [
        "0x5c151010b941Cb8F103b5708725A20118dcbA509",
        "0x429ba70129df741B2Ca2a85BC3A2a3328e5c09b4",
        "1461501637330902918203684832716283019655932542975",
        "281474976710655"
      ],
      "transaction": {
        "from": "0x1942913ce83a919200c518c7cd08f990c686b966",
        "to": "0x000000000022d473030f116ddee9f6b43ac78ba3",
        "gas": "0x1112d",
        "value": "0x0",
        "input": "0x87517c450000000000000000000000005c151010b941cb8f103b5708725a20118dcba509000000000000000000000000429ba70129df741b2ca2a85bc3a2a3328e5c09b4000000000000000000000000ffffffffffffffffffffffffffffffffffffffff0000000000000000000000000000000000000000000000000000ffffffffffff",
        "nonce": "0xd",
        "chainId": "0xaa36a7"
      },
      "additionalContracts": [],
      "isFixedGasLimit": false
    },
    {
      "hash": null,
      "transactionType": "CALL",
      "contractName": null,
      "contractAddress": "0x429ba70129df741b2ca2a85bc3a2a3328e5c09b4",
      "function": "multicall(bytes[])",
      "arguments": [
        "[0xdd46508f0000000000000000000000000000000000000000000000000000000000000040000000000000000000000000000000000000000000000000000000006820ccc80000000000000000000000000000000000000000000000000000000000000300000000000000000000000000000000000000000000000000000000000000004000000000000000000000000000000000000000000000000000000000000000800000000000000000000000000000000000000000000000000000000000000002020d00000000000000000000000000000000000000000000000000000000000000000000000000000000000000000000000000000000000000000000000000020000000000000000000000000000000000000000000000000000000000000040000000000000000000000000000000000000000000000000000000000000020000000000000000000000000000000000000000000000000000000000000001a000000000000000000000000003d516cc372f7fa6c51ab54304ff2e361fbd4ef50000000000000000000000005c151010b941cb8f103b5708725a20118dcba5090000000000000000000000000000000000000000000000000000000000000bb8000000000000000000000000000000000000000000000000000000000000003c0000000000000000000000000000000000000000000000000000000000000000fffffffffffffffffffffffffffffffffffffffffffffffffffffffffffffda800000000000000000000000000000000000000000000000000000000000002580000000000000000000000000000000000000000000000000de0b6b3a76400000000000000000000000000000000000000000000000000000de0b6b3a76400000000000000000000000000000000000000000000000000000de0b6b3a76400000000000000000000000000001942913ce83a919200c518c7cd08f990c686b96600000000000000000000000000000000000000000000000000000000000001800000000000000000000000000000000000000000000000000000000000000000000000000000000000000000000000000000000000000000000000000000004000000000000000000000000003d516cc372f7fa6c51ab54304ff2e361fbd4ef50000000000000000000000005c151010b941cb8f103b5708725a20118dcba509]"
      ],
      "transaction": {
        "from": "0x1942913ce83a919200c518c7cd08f990c686b966",
        "to": "0x429ba70129df741b2ca2a85bc3a2a3328e5c09b4",
        "gas": "0x92364",
        "value": "0x0",
        "input": "0xac9650d80000000000000000000000000000000000000000000000000000000000000020000000000000000000000000000000000000000000000000000000000000000100000000000000000000000000000000000000000000000000000000000000200000000000000000000000000000000000000000000000000000000000000364dd46508f0000000000000000000000000000000000000000000000000000000000000040000000000000000000000000000000000000000000000000000000006820ccc80000000000000000000000000000000000000000000000000000000000000300000000000000000000000000000000000000000000000000000000000000004000000000000000000000000000000000000000000000000000000000000000800000000000000000000000000000000000000000000000000000000000000002020d00000000000000000000000000000000000000000000000000000000000000000000000000000000000000000000000000000000000000000000000000020000000000000000000000000000000000000000000000000000000000000040000000000000000000000000000000000000000000000000000000000000020000000000000000000000000000000000000000000000000000000000000001a000000000000000000000000003d516cc372f7fa6c51ab54304ff2e361fbd4ef50000000000000000000000005c151010b941cb8f103b5708725a20118dcba5090000000000000000000000000000000000000000000000000000000000000bb8000000000000000000000000000000000000000000000000000000000000003c0000000000000000000000000000000000000000000000000000000000000000fffffffffffffffffffffffffffffffffffffffffffffffffffffffffffffda800000000000000000000000000000000000000000000000000000000000002580000000000000000000000000000000000000000000000000de0b6b3a76400000000000000000000000000000000000000000000000000000de0b6b3a76400000000000000000000000000000000000000000000000000000de0b6b3a76400000000000000000000000000001942913ce83a919200c518c7cd08f990c686b96600000000000000000000000000000000000000000000000000000000000001800000000000000000000000000000000000000000000000000000000000000000000000000000000000000000000000000000000000000000000000000000004000000000000000000000000003d516cc372f7fa6c51ab54304ff2e361fbd4ef50000000000000000000000005c151010b941cb8f103b5708725a20118dcba50900000000000000000000000000000000000000000000000000000000",
        "nonce": "0xe",
        "chainId": "0xaa36a7"
      },
      "additionalContracts": [],
      "isFixedGasLimit": false
    }
  ],
  "receipts": [
    {
      "status": "0x1",
      "cumulativeGasUsed": "0x14e0ece",
      "logs": [],
      "logsBloom": "0x00000000000000000000000000000000000000000000000000000000000000000000000000000000000000000000000000000000000000000000000000000000000000000000000000000000000000000000000000000000000000000000000000000000000000000000000000000000000000000000000000000000000000000000000000000000000000000000000000000000000000000000000000000000000000000000000000000000000000000000000000000000000000000000000000000000000000000000000000000000000000000000000000000000000000000000000000000000000000000000000000000000000000000000000000000000",
      "type": "0x2",
      "transactionHash": "0x2dabcecd898437cd58daa1700d826bb9620d95df8bdddd8b8d097a649433c9a5",
      "transactionIndex": "0xe4",
      "blockHash": "0x80bc4d00dca2a94b48f5c441a218cb7133a5917b25ddfb84797d625256362356",
      "blockNumber": "0x7eb92a",
      "gasUsed": "0xeea0f",
      "effectiveGasPrice": "0xf4251",
      "from": "0x1942913ce83a919200c518c7cd08f990c686b966",
      "to": null,
      "contractAddress": "0x03d516cc372f7fa6c51ab54304ff2e361fbd4ef5"
    },
    {
      "status": "0x1",
      "cumulativeGasUsed": "0x13f54d4",
      "logs": [],
      "logsBloom": "0x00000000000000000000000000000000000000000000000000000000000000000000000000000000000000000000000000000000000000000000000000000000000000000000000000000000000000000000000000000000000000000000000000000000000000000000000000000000000000000000000000000000000000000000000000000000000000000000000000000000000000000000000000000000000000000000000000000000000000000000000000000000000000000000000000000000000000000000000000000000000000000000000000000000000000000000000000000000000000000000000000000000000000000000000000000000",
      "type": "0x2",
      "transactionHash": "0xe938f3e0de9d370c7450aab864e5f3d0fbb3f050a5ec7b2e310a69d3ae2c7b67",
      "transactionIndex": "0x100",
      "blockHash": "0x72ebacab346c8fdcc770e14d7d27f269d74c7d763a0a0f27539179d4ab3b3aea",
      "blockNumber": "0x7eb92b",
      "gasUsed": "0xeea0f",
      "effectiveGasPrice": "0xf4252",
      "from": "0x1942913ce83a919200c518c7cd08f990c686b966",
      "to": null,
      "contractAddress": "0x5c151010b941cb8f103b5708725a20118dcba509"
    },
    {
      "status": "0x1",
      "cumulativeGasUsed": "0x1066590",
      "logs": [
        {
          "address": "0x03d516cc372f7fa6c51ab54304ff2e361fbd4ef5",
          "topics": [
            "0xddf252ad1be2c89b69c2b068fc378daa952ba7f163c4a11628f55a4df523b3ef",
            "0x0000000000000000000000000000000000000000000000000000000000000000",
            "0x0000000000000000000000001942913ce83a919200c518c7cd08f990c686b966"
          ],
          "data": "0x0000000000000000000000000000000000000000000000008ac7230489e80000",
          "blockHash": "0x7c4479f337e138644be4dffe4f5c40b2ccfc2be9781b9f5c313d1984e9fb7f2a",
          "blockNumber": "0x7eb92c",
          "transactionHash": "0x6651a746130af059dae6e9a74272a04994ab079b45fee978143aa182d597a8c8",
          "transactionIndex": "0x103",
          "logIndex": "0x105",
          "removed": false
        }
      ],
      "logsBloom": "0x00000000000000000000000000000000000000000000000800000000000000000000000000000001000000000000000000004000000000800000000000000000000000000000000001000008000000000000000000000000000000000000000000000000020000000000000000010800000000000000000000000010000000000000000000000000000000000000000000000000000000000000000000000000000000000000000000000000000000000000000000000000000000000000000000000002000000000000000000000000000000000000000000000000000020000000000000000000000000000000000000000000000000000000000000000000",
      "type": "0x2",
      "transactionHash": "0x6651a746130af059dae6e9a74272a04994ab079b45fee978143aa182d597a8c8",
      "transactionIndex": "0x103",
      "blockHash": "0x7c4479f337e138644be4dffe4f5c40b2ccfc2be9781b9f5c313d1984e9fb7f2a",
      "blockNumber": "0x7eb92c",
      "gasUsed": "0x10d29",
      "effectiveGasPrice": "0xf4253",
      "from": "0x1942913ce83a919200c518c7cd08f990c686b966",
      "to": "0x03d516cc372f7fa6c51ab54304ff2e361fbd4ef5",
      "contractAddress": null
    },
    {
      "status": "0x1",
      "cumulativeGasUsed": "0x1068f4d",
      "logs": [
        {
          "address": "0x5c151010b941cb8f103b5708725a20118dcba509",
          "topics": [
            "0xddf252ad1be2c89b69c2b068fc378daa952ba7f163c4a11628f55a4df523b3ef",
            "0x0000000000000000000000000000000000000000000000000000000000000000",
            "0x0000000000000000000000001942913ce83a919200c518c7cd08f990c686b966"
          ],
          "data": "0x0000000000000000000000000000000000000000000000008ac7230489e80000",
          "blockHash": "0xa7036bcd8e9ba9865f781ceb5eef97ceb00d543163be1d353801017e7a3d3118",
          "blockNumber": "0x7eb92d",
          "blockTimestamp": "0x6820ccd4",
          "transactionHash": "0xd0aa890a16e595bd51082f492727955ffd5bb5cf7d5e7d2a9a35d59a5637b870",
          "transactionIndex": "0xd4",
          "logIndex": "0x103",
          "removed": false
        }
      ],
      "logsBloom": "0x00000000000000000000000000000000000000000000000800000000000000000000000000000000000000000000000000000000000000800000000000000000000000000000000000000008000000000000000000000000000000000000000000000000020000000000000000010800000000000000000000000010000000000000000000000000000000000000000000000000000000000000000000000000000000000000000000000000000000000000000000000000000000020000000000000002000000000000000000000000000000000000000000000000000020000000000000000000000000010000000000000000000000000000000000000400",
      "type": "0x2",
      "transactionHash": "0xd0aa890a16e595bd51082f492727955ffd5bb5cf7d5e7d2a9a35d59a5637b870",
      "transactionIndex": "0xd4",
      "blockHash": "0xa7036bcd8e9ba9865f781ceb5eef97ceb00d543163be1d353801017e7a3d3118",
      "blockNumber": "0x7eb92d",
      "gasUsed": "0x10d29",
      "effectiveGasPrice": "0xf4253",
      "from": "0x1942913ce83a919200c518c7cd08f990c686b966",
      "to": "0x5c151010b941cb8f103b5708725a20118dcba509",
      "contractAddress": null
    },
    {
      "status": "0x1",
      "cumulativeGasUsed": "0xeb5f49",
      "logs": [
        {
          "address": "0xe03a1074c86cfedd5c142c4f04f1a1536e203543",
          "topics": [
            "0xdd466e674ea557f56295e2d0218a125ea4b4f0f6f3307b95f85e6110838d6438",
            "0x340e4e683a239995ed063d43d931887d84b7239aa6e641faf9712e41133bfa80",
            "0x00000000000000000000000003d516cc372f7fa6c51ab54304ff2e361fbd4ef5",
            "0x0000000000000000000000005c151010b941cb8f103b5708725a20118dcba509"
          ],
          "data": "0x0000000000000000000000000000000000000000000000000000000000000bb8000000000000000000000000000000000000000000000000000000000000003c000000000000000000000000000000000000000000000000000000000000000000000000000000000000000000000000000000010000000000000000000000000000000000000000000000000000000000000000000000000000000000000000",
          "blockHash": "0x8551ee9d25b9e2a0eaa1f8013215c44794eb9ad73f96652549c81db8f40ac916",
          "blockNumber": "0x7eb92e",
          "transactionHash": "0xe3386f2e398e4c66add117a30252e1538b919e7502588f013d74b927ccb7882c",
          "transactionIndex": "0xe2",
          "logIndex": "0xee",
          "removed": false
        }
      ],
      "logsBloom": "0x00000000000000000000000000000000000000000000000000004000000000000000000000000000000000000000100000000100000000000000000000000000000000000000000000001000000000000000000000000000000000000000000000000000800000000000000000000000000000000002100000000000000000000000000000000008008000000000000000000001000000000000000000200000000000000000200000400000000000000000000000000000000000000000000000000000080000000000000000000000000000000000000000000000000000001000000000000000000000000000000000000000000000000000000000000000",
      "type": "0x2",
      "transactionHash": "0xe3386f2e398e4c66add117a30252e1538b919e7502588f013d74b927ccb7882c",
      "transactionIndex": "0xe2",
      "blockHash": "0x8551ee9d25b9e2a0eaa1f8013215c44794eb9ad73f96652549c81db8f40ac916",
      "blockNumber": "0x7eb92e",
      "gasUsed": "0xe968",
      "effectiveGasPrice": "0xf4253",
      "from": "0x1942913ce83a919200c518c7cd08f990c686b966",
      "to": "0x429ba70129df741b2ca2a85bc3a2a3328e5c09b4",
      "contractAddress": null
    },
    {
      "status": "0x1",
      "cumulativeGasUsed": "0x11ffc2e",
      "logs": [
        {
          "address": "0x03d516cc372f7fa6c51ab54304ff2e361fbd4ef5",
          "topics": [
            "0x8c5be1e5ebec7d5bd14f71427d1e84f3dd0314c0f7b2291e5b200ac8c7c3b925",
            "0x0000000000000000000000001942913ce83a919200c518c7cd08f990c686b966",
            "0x000000000000000000000000000000000022d473030f116ddee9f6b43ac78ba3"
          ],
          "data": "0xffffffffffffffffffffffffffffffffffffffffffffffffffffffffffffffff",
          "blockHash": "0x4f48987b51796c8492ce85e5ed77dfdf7c284d60d23d55959e8d7ffc7e3104f0",
          "blockNumber": "0x7eb92f",
          "transactionHash": "0x5611d3f48d27d864ae322bdea99c94337525c5cb56caca916b3bd2d3b46994e5",
          "transactionIndex": "0x100",
          "logIndex": "0x121",
          "removed": false
        }
      ],
      "logsBloom": "0x00000000000000000000000000000000000000000000000800000000000000000000000000000001000000000000000000004000800000800000000000200000000000000000000001004000000000000000000000000800000000000000000000000000000000000000000000010000000000000000000000000000000000000000000000000000000000000000000000000000000000000000000000000000020000000000000000000000000000000000000000000000000000000000000000000000000000000000000000000000000000000000000000000000000000000010000000000000000000000000000000000000000000000000000000000000",
      "type": "0x2",
      "transactionHash": "0x5611d3f48d27d864ae322bdea99c94337525c5cb56caca916b3bd2d3b46994e5",
      "transactionIndex": "0x100",
      "blockHash": "0x4f48987b51796c8492ce85e5ed77dfdf7c284d60d23d55959e8d7ffc7e3104f0",
      "blockNumber": "0x7eb92f",
      "gasUsed": "0xb773",
      "effectiveGasPrice": "0xf4253",
      "from": "0x1942913ce83a919200c518c7cd08f990c686b966",
      "to": "0x03d516cc372f7fa6c51ab54304ff2e361fbd4ef5",
      "contractAddress": null
    }
  ],
  "libraries": [],
  "pending": [
    "0x382c7624fdfa0756bdf965890d07bf34e3245b1a75ae0a302257362e70046ded"
  ],
  "returns": {},
  "timestamp": 1746980077,
  "chain": 11155111,
  "commit": "e2c4006"
}