{
  "transactions": [
    {
      "hash": "0xdc0b79ddc68d06269a5726f17ed5b81a4d6d2d774139b76c9f0c72a2fa39e2f0",
      "transactionType": "CALL",
      "contractName": null,
      "contractAddress": "0x1c7d4b196cb0c7b01d743fbc6116a902379c7238",
      "function": "approve(address,uint256)",
      "arguments": [
        "0x000000000022D473030F116dDEE9F6B43aC78BA3",
        "115792089237316195423570985008687907853269984665640564039457584007913129639935"
      ],
      "transaction": {
        "from": "0x1942913ce83a919200c518c7cd08f990c686b966",
        "to": "0x1c7d4b196cb0c7b01d743fbc6116a902379c7238",
        "gas": "0x12ca9",
        "value": "0x0",
        "input": "0x095ea7b3000000000000000000000000000000000022d473030f116ddee9f6b43ac78ba3ffffffffffffffffffffffffffffffffffffffffffffffffffffffffffffffff",
        "nonce": "0x0",
        "chainId": "0xaa36a7"
      },
      "additionalContracts": [],
      "isFixedGasLimit": false
    },
    {
      "hash": "0xdb0d4a9b41b1398023280fb90e164a8fe385050468e7142f120fe4e1ad1eb919",
      "transactionType": "CALL",
      "contractName": null,
      "contractAddress": "0x000000000022d473030f116ddee9f6b43ac78ba3",
      "function": "approve(address,address,uint160,uint48)",
      "arguments": [
        "0x1c7D4B196Cb0C7B01d743Fbc6116a902379C7238",
        "0x429ba70129df741B2Ca2a85BC3A2a3328e5c09b4",
        "1461501637330902918203684832716283019655932542975",
        "281474976710655"
      ],
      "transaction": {
        "from": "0x1942913ce83a919200c518c7cd08f990c686b966",
        "to": "0x000000000022d473030f116ddee9f6b43ac78ba3",
        "gas": "0x1112d",
        "value": "0x0",
        "input": "0x87517c450000000000000000000000001c7d4b196cb0c7b01d743fbc6116a902379c7238000000000000000000000000429ba70129df741b2ca2a85bc3a2a3328e5c09b4000000000000000000000000ffffffffffffffffffffffffffffffffffffffff0000000000000000000000000000000000000000000000000000ffffffffffff",
        "nonce": "0x1",
        "chainId": "0xaa36a7"
      },
      "additionalContracts": [],
      "isFixedGasLimit": false
    },
    {
      "hash": "0x8e85d6916c5c0ec50f82b9c912b511596d85e8e87d916510ad498a7843bf48a5",
      "transactionType": "CALL",
      "contractName": null,
      "contractAddress": "0x7b79995e5f793a07bc00c21412e50ecae098e7f9",
      "function": "approve(address,uint256)",
      "arguments": [
        "0x000000000022D473030F116dDEE9F6B43aC78BA3",
        "115792089237316195423570985008687907853269984665640564039457584007913129639935"
      ],
      "transaction": {
        "from": "0x1942913ce83a919200c518c7cd08f990c686b966",
        "to": "0x7b79995e5f793a07bc00c21412e50ecae098e7f9",
        "gas": "0xf9b8",
        "value": "0x0",
        "input": "0x095ea7b3000000000000000000000000000000000022d473030f116ddee9f6b43ac78ba3ffffffffffffffffffffffffffffffffffffffffffffffffffffffffffffffff",
        "nonce": "0x2",
        "chainId": "0xaa36a7"
      },
      "additionalContracts": [],
      "isFixedGasLimit": false
    },
    {
      "hash": "0x4b1e2bdf0dfe2f2f945bcfce47641d1f3bd7746185e0ca65f5216d7166710166",
      "transactionType": "CALL",
      "contractName": null,
      "contractAddress": "0x000000000022d473030f116ddee9f6b43ac78ba3",
      "function": "approve(address,address,uint160,uint48)",
      "arguments": [
        "0x7b79995e5f793A07Bc00c21412e50Ecae098E7f9",
        "0x429ba70129df741B2Ca2a85BC3A2a3328e5c09b4",
        "1461501637330902918203684832716283019655932542975",
        "281474976710655"
      ],
      "transaction": {
        "from": "0x1942913ce83a919200c518c7cd08f990c686b966",
        "to": "0x000000000022d473030f116ddee9f6b43ac78ba3",
        "gas": "0x101ee",
        "value": "0x0",
        "input": "0x87517c450000000000000000000000007b79995e5f793a07bc00c21412e50ecae098e7f9000000000000000000000000429ba70129df741b2ca2a85bc3a2a3328e5c09b4000000000000000000000000ffffffffffffffffffffffffffffffffffffffff0000000000000000000000000000000000000000000000000000ffffffffffff",
        "nonce": "0x3",
        "chainId": "0xaa36a7"
      },
      "additionalContracts": [],
      "isFixedGasLimit": false
    },
    {
      "hash": "0x96dfef23227cb4800b63cde0ecbc41d7c59449fd89774798a7fb8a2e06cefdb7",
      "transactionType": "CALL",
      "contractName": null,
      "contractAddress": "0x429ba70129df741b2ca2a85bc3a2a3328e5c09b4",
      "function": "multicall(bytes[])",
      "arguments": [
        "[0xf70204050000000000000000000000001c7d4b196cb0c7b01d743fbc6116a902379c72380000000000000000000000007b79995e5f793a07bc00c21412e50ecae098e7f90000000000000000000000000000000000000000000000000000000000000bb8000000000000000000000000000000000000000000000000000000000000003c0000000000000000000000000000000000000000000000000000000000000000000000000000000000000000000000000000000050f44d8921243b6cdba25b3600000000000000000000000000000000000000000000000000000000000000e00000000000000000000000000000000000000000000000000000000000000000]"
      ],
      "transaction": {
        "from": "0x1942913ce83a919200c518c7cd08f990c686b966",
        "to": "0x429ba70129df741b2ca2a85bc3a2a3328e5c09b4",
        "gas": "0xb9fb",
        "value": "0x0",
        "input": "0xac9650d80000000000000000000000000000000000000000000000000000000000000020000000000000000000000000000000000000000000000000000000000000000100000000000000000000000000000000000000000000000000000000000000200000000000000000000000000000000000000000000000000000000000000104f70204050000000000000000000000001c7d4b196cb0c7b01d743fbc6116a902379c72380000000000000000000000007b79995e5f793a07bc00c21412e50ecae098e7f90000000000000000000000000000000000000000000000000000000000000bb8000000000000000000000000000000000000000000000000000000000000003c0000000000000000000000000000000000000000000000000000000000000000000000000000000000000000000000000000000050f44d8921243b6cdba25b3600000000000000000000000000000000000000000000000000000000000000e0000000000000000000000000000000000000000000000000000000000000000000000000000000000000000000000000000000000000000000000000",
        "nonce": "0x4",
        "chainId": "0xaa36a7"
      },
      "additionalContracts": [],
      "isFixedGasLimit": false
    }
  ],
  "receipts": [
    {
      "status": "0x1",
      "cumulativeGasUsed": "0x178e039",
      "logs": [
        {
          "address": "0x1c7d4b196cb0c7b01d743fbc6116a902379c7238",
          "topics": [
            "0x8c5be1e5ebec7d5bd14f71427d1e84f3dd0314c0f7b2291e5b200ac8c7c3b925",
            "0x0000000000000000000000001942913ce83a919200c518c7cd08f990c686b966",
            "0x000000000000000000000000000000000022d473030f116ddee9f6b43ac78ba3"
          ],
          "data": "0xffffffffffffffffffffffffffffffffffffffffffffffffffffffffffffffff",
          "blockHash": "0x0661bf753e03a10e683740d350a4420064042cec5ec735dd176379ff975d7c2c",
          "blockNumber": "0x7eb8ee",
          "transactionHash": "0xdc0b79ddc68d06269a5726f17ed5b81a4d6d2d774139b76c9f0c72a2fa39e2f0",
          "transactionIndex": "0x13a",
          "logIndex": "0x151",
          "removed": false
        }
      ],
      "logsBloom": "0x00000000000000000000000000000000000000000000000800000000000200000000000000000000000000000000000000000000800000800000000000200000000000000000000000004000000000000000000000000800000000000000000000000000000000000000000000010000000000000000000000000000000000000000000000100000000000000000000000000000000000000000000000000000020000000000000000000000000000000000000000000000000000000000000000000000000000000000000000000000000000000000000000000000000000000010000000000000000010000000000000000000000000000000000000000000",
      "type": "0x2",
      "transactionHash": "0xdc0b79ddc68d06269a5726f17ed5b81a4d6d2d774139b76c9f0c72a2fa39e2f0",
      "transactionIndex": "0x13a",
      "blockHash": "0x0661bf753e03a10e683740d350a4420064042cec5ec735dd176379ff975d7c2c",
      "blockNumber": "0x7eb8ee",
      "gasUsed": "0xd9ad",
      "effectiveGasPrice": "0xf4259",
      "from": "0x1942913ce83a919200c518c7cd08f990c686b966",
      "to": "0x1c7d4b196cb0c7b01d743fbc6116a902379c7238",
      "contractAddress": null
    },
    {
      "status": "0x1",
      "cumulativeGasUsed": "0xedec63",
      "logs": [
        {
          "address": "0x000000000022d473030f116ddee9f6b43ac78ba3",
          "topics": [
            "0xda9fa7c1b00402c17d0161b249b1ab8bbec047c5a52207b9c112deffd817036b",
            "0x0000000000000000000000001942913ce83a919200c518c7cd08f990c686b966",
            "0x0000000000000000000000001c7d4b196cb0c7b01d743fbc6116a902379c7238",
            "0x000000000000000000000000429ba70129df741b2ca2a85bc3a2a3328e5c09b4"
          ],
          "data": "0x000000000000000000000000ffffffffffffffffffffffffffffffffffffffff0000000000000000000000000000000000000000000000000000ffffffffffff",
          "blockHash": "0x60c6d3036f1dbc01c401b318f52a1344f5686d9e7c90a81c306c8f813ec7b844",
          "blockNumber": "0x7eb8ef",
          "transactionHash": "0xdb0d4a9b41b1398023280fb90e164a8fe385050468e7142f120fe4e1ad1eb919",
          "transactionIndex": "0x104",
          "logIndex": "0xe4",
          "removed": false
        }
      ],
      "logsBloom": "0x00010000000000000000000000000000000000000000000800000000000000000000000000000040080000000000000000000000000004800000000000080000100000000000000000000000000000000000000000000000000000000000000000000000000000000000000000010000000000000000000000000800000000000020000000000000000000000000000000000000000000000000000000000000000000000000000000000000000000000000008000000000000000080000000000000000000000000000000000000000000000000000000040000000000000000000000000000000000000000000000000000000000000000000000000000400",
      "type": "0x2",
      "transactionHash": "0xdb0d4a9b41b1398023280fb90e164a8fe385050468e7142f120fe4e1ad1eb919",
      "transactionIndex": "0x104",
      "blockHash": "0x60c6d3036f1dbc01c401b318f52a1344f5686d9e7c90a81c306c8f813ec7b844",
      "blockNumber": "0x7eb8ef",
      "gasUsed": "0xbaca",
      "effectiveGasPrice": "0xf4259",
      "from": "0x1942913ce83a919200c518c7cd08f990c686b966",
      "to": "0x000000000022d473030f116ddee9f6b43ac78ba3",
      "contractAddress": null
    },
    {
      "status": "0x1",
      "cumulativeGasUsed": "0x1515420",
      "logs": [
        {
          "address": "0x7b79995e5f793a07bc00c21412e50ecae098e7f9",
          "topics": [
            "0x8c5be1e5ebec7d5bd14f71427d1e84f3dd0314c0f7b2291e5b200ac8c7c3b925",
            "0x0000000000000000000000001942913ce83a919200c518c7cd08f990c686b966",
            "0x000000000000000000000000000000000022d473030f116ddee9f6b43ac78ba3"
          ],
          "data": "0xffffffffffffffffffffffffffffffffffffffffffffffffffffffffffffffff",
          "blockHash": "0x2511c116a47ff5c6c195e06245d2b67388920de5272f269e6a8fe0c75537b993",
          "blockNumber": "0x7eb8f0",
          "blockTimestamp": "0x6820c9f8",
          "transactionHash": "0x8e85d6916c5c0ec50f82b9c912b511596d85e8e87d916510ad498a7843bf48a5",
          "transactionIndex": "0x13e",
          "logIndex": "0x137",
          "removed": false
        }
      ],
      "logsBloom": "0x00000000000000000000000000000000000000000000000800000004000000000000000000000000000000000000000000000000800000800000000000200000000000000000000000004000000000000000000000000800000000000000000000000000000000000000000000010000000000000000000000000000000000000000000000000000000000000000000000000000000000000000000000000000020000000000000000000000000000080000000000000000000000000000000000000002000000000000000000000000000000000000000000000000000000000010000000000000000000000000000000000000000000000000000000000000",
      "type": "0x2",
      "transactionHash": "0x8e85d6916c5c0ec50f82b9c912b511596d85e8e87d916510ad498a7843bf48a5",
      "transactionIndex": "0x13e",
      "blockHash": "0x2511c116a47ff5c6c195e06245d2b67388920de5272f269e6a8fe0c75537b993",
      "blockNumber": "0x7eb8f0",
      "gasUsed": "0xb4cc",
      "effectiveGasPrice": "0xf4258",
      "from": "0x1942913ce83a919200c518c7cd08f990c686b966",
      "to": "0x7b79995e5f793a07bc00c21412e50ecae098e7f9",
      "contractAddress": null
    },
    {
      "status": "0x1",
      "cumulativeGasUsed": "0x15f390d",
      "logs": [
        {
          "address": "0x000000000022d473030f116ddee9f6b43ac78ba3",
          "topics": [
            "0xda9fa7c1b00402c17d0161b249b1ab8bbec047c5a52207b9c112deffd817036b",
            "0x0000000000000000000000001942913ce83a919200c518c7cd08f990c686b966",
            "0x0000000000000000000000007b79995e5f793a07bc00c21412e50ecae098e7f9",
            "0x000000000000000000000000429ba70129df741b2ca2a85bc3a2a3328e5c09b4"
          ],
          "data": "0x000000000000000000000000ffffffffffffffffffffffffffffffffffffffff0000000000000000000000000000000000000000000000000000ffffffffffff",
          "blockHash": "0x5e341e7e4eeee71fc32edad5c7032e0d6ce0761a2d07d7f7a910f59da3f22679",
          "blockNumber": "0x7eb8f1",
          "blockTimestamp": "0x6820ca04",
          "transactionHash": "0x4b1e2bdf0dfe2f2f945bcfce47641d1f3bd7746185e0ca65f5216d7166710166",
          "transactionIndex": "0x1e4",
          "logIndex": "0x125",
          "removed": false
        }
      ],
      "logsBloom": "0x00010000000000000000000000000000000000000000000800000000000000000000000000000042080000000000000000000000000000800000000000080000000000000000000000000040000000000000004000000000000000000000000000000000000000000000000000010000000000000000000000000800000000000020000000000000000000000000000000000000000000000000000000000000000000000000000000000000000000000000000000000000000000080000000000000000000000000000000000000000000000000000000040000000000000000000000000000000000000000000000000000000000000000000000000000400",
      "type": "0x2",
      "transactionHash": "0x4b1e2bdf0dfe2f2f945bcfce47641d1f3bd7746185e0ca65f5216d7166710166",
      "transactionIndex": "0x1e4",
      "blockHash": "0x5e341e7e4eeee71fc32edad5c7032e0d6ce0761a2d07d7f7a910f59da3f22679",
      "blockNumber": "0x7eb8f1",
      "gasUsed": "0xbabe",
      "effectiveGasPrice": "0xf4258",
      "from": "0x1942913ce83a919200c518c7cd08f990c686b966",
      "to": "0x000000000022d473030f116ddee9f6b43ac78ba3",
      "contractAddress": null
    },
    {
      "status": "0x1",
      "cumulativeGasUsed": "0x14601ed",
      "logs": [],
      "logsBloom": "0x00000000000000000000000000000000000000000000000000000000000000000000000000000000000000000000000000000000000000000000000000000000000000000000000000000000000000000000000000000000000000000000000000000000000000000000000000000000000000000000000000000000000000000000000000000000000000000000000000000000000000000000000000000000000000000000000000000000000000000000000000000000000000000000000000000000000000000000000000000000000000000000000000000000000000000000000000000000000000000000000000000000000000000000000000000000",
      "type": "0x2",
      "transactionHash": "0x96dfef23227cb4800b63cde0ecbc41d7c59449fd89774798a7fb8a2e06cefdb7",
      "transactionIndex": "0x134",
      "blockHash": "0x9b85f9def2dc5ae3d859e37d63ab20ca749e9a0010d6cdd54ef23c6cfe42a173",
      "blockNumber": "0x7eb8f2",
      "gasUsed": "0x86a6",
      "effectiveGasPrice": "0xf4258",
      "from": "0x1942913ce83a919200c518c7cd08f990c686b966",
      "to": "0x429ba70129df741b2ca2a85bc3a2a3328e5c09b4",
      "contractAddress": null
    }
  ],
  "libraries": [],
  "pending": [],
  "returns": {},
  "timestamp": 1746979346,
  "chain": 11155111,
  "commit": "760e6c9"
}